{
  "contractName": "StockManagement",
  "abi": [
    {
      "constant": true,
      "inputs": [
        {
          "name": "",
          "type": "string"
        },
        {
          "name": "",
          "type": "uint256"
        }
      ],
      "name": "buy_allStockData",
      "outputs": [
        {
          "name": "",
          "type": "bytes32"
        }
      ],
      "payable": false,
      "stateMutability": "view",
      "type": "function"
    },
    {
      "constant": true,
      "inputs": [
        {
          "name": "",
          "type": "uint256"
        }
      ],
      "name": "buy_allStockId",
      "outputs": [
        {
          "name": "",
          "type": "bytes32"
        }
      ],
      "payable": false,
      "stateMutability": "view",
      "type": "function"
    },
    {
      "constant": true,
      "inputs": [
        {
          "name": "",
          "type": "string"
        },
        {
          "name": "",
          "type": "string"
        }
      ],
      "name": "stock",
      "outputs": [
        {
          "name": "stock_Name",
          "type": "string"
        },
        {
          "name": "stock_NowPrice",
          "type": "int256"
        },
        {
          "name": "stock_Number",
          "type": "int256"
        },
        {
          "name": "stock_calltime",
          "type": "uint256"
        }
      ],
      "payable": false,
      "stateMutability": "view",
      "type": "function"
    },
    {
      "constant": true,
      "inputs": [
        {
          "name": "",
          "type": "uint256"
        }
      ],
      "name": "search_allStockId",
      "outputs": [
        {
          "name": "",
          "type": "bytes32"
        }
      ],
      "payable": false,
      "stateMutability": "view",
      "type": "function"
    },
    {
      "constant": true,
      "inputs": [
        {
          "name": "",
          "type": "string"
        }
      ],
      "name": "allStockData",
      "outputs": [
        {
          "name": "stock_Name",
          "type": "string"
        },
        {
          "name": "stock_NowPrice",
          "type": "int256"
        }
      ],
      "payable": false,
      "stateMutability": "view",
      "type": "function"
    },
    {
      "inputs": [
        {
          "name": "um_addr",
          "type": "address"
        }
      ],
      "payable": false,
      "stateMutability": "nonpayable",
      "type": "constructor"
    },
    {
      "constant": false,
      "inputs": [
        {
          "name": "stockId",
          "type": "string"
        }
      ],
      "name": "search_StockId",
      "outputs": [],
      "payable": false,
      "stateMutability": "nonpayable",
      "type": "function"
    },
    {
      "constant": true,
      "inputs": [],
      "name": "get_search_allStockId",
      "outputs": [
        {
          "name": "",
          "type": "bytes32[]"
        }
      ],
      "payable": false,
      "stateMutability": "view",
      "type": "function"
    },
    {
      "constant": false,
      "inputs": [
        {
          "name": "stockId",
          "type": "string"
        },
        {
          "name": "stock_Name",
          "type": "string"
        },
        {
          "name": "stock_NowPrice",
          "type": "int256"
        }
      ],
      "name": "update_StockData",
      "outputs": [],
      "payable": false,
      "stateMutability": "nonpayable",
      "type": "function"
    },
    {
      "constant": true,
      "inputs": [
        {
          "name": "stockId",
          "type": "string"
        }
      ],
      "name": "inputStockId_getStockData",
      "outputs": [
        {
          "name": "",
          "type": "string"
        },
        {
          "name": "",
          "type": "int256"
        }
      ],
      "payable": false,
      "stateMutability": "view",
      "type": "function"
    },
    {
      "constant": false,
      "inputs": [
        {
          "name": "account",
          "type": "string"
        },
        {
          "name": "stockId",
          "type": "string"
        },
        {
          "name": "stock_Name",
          "type": "string"
        },
        {
          "name": "stock_NowPrice",
          "type": "int256"
        },
        {
          "name": "stock_Number",
          "type": "int256"
        }
      ],
      "name": "set_User_StockId",
      "outputs": [],
      "payable": false,
      "stateMutability": "nonpayable",
      "type": "function"
    },
    {
      "constant": true,
      "inputs": [
        {
          "name": "account",
          "type": "string"
        },
        {
          "name": "stockId",
          "type": "string"
        }
      ],
      "name": "get_User_StockId",
      "outputs": [
        {
          "name": "",
          "type": "string"
        },
        {
          "name": "",
          "type": "string"
        },
        {
          "name": "",
          "type": "int256"
        },
        {
          "name": "",
          "type": "int256"
        },
        {
          "name": "",
          "type": "uint256"
        }
      ],
      "payable": false,
      "stateMutability": "view",
      "type": "function"
    },
    {
      "constant": false,
      "inputs": [
        {
          "name": "account",
          "type": "string"
        },
        {
          "name": "stockId",
          "type": "string"
        },
        {
          "name": "stock_Name",
          "type": "string"
        },
        {
          "name": "stock_NowPrice",
          "type": "int256"
        },
        {
          "name": "stock_Number",
          "type": "int256"
        }
      ],
      "name": "trade_buy_Stock",
      "outputs": [],
      "payable": false,
      "stateMutability": "nonpayable",
      "type": "function"
    },
    {
      "constant": true,
      "inputs": [],
      "name": "get_Txn_allStockId",
      "outputs": [
        {
          "name": "",
          "type": "bytes32[]"
        }
      ],
      "payable": false,
      "stateMutability": "view",
      "type": "function"
    },
    {
      "constant": true,
      "inputs": [
        {
          "name": "account",
          "type": "string"
        }
      ],
      "name": "get_Txn_userStockId",
      "outputs": [
        {
          "name": "",
          "type": "bytes32[]"
        }
      ],
      "payable": false,
      "stateMutability": "view",
      "type": "function"
    },
    {
      "constant": false,
      "inputs": [
        {
          "name": "account",
          "type": "string"
        },
        {
          "name": "stockId",
          "type": "string"
        },
        {
          "name": "stock_NowPrice",
          "type": "int256"
        }
      ],
      "name": "update_UserStockvalue",
      "outputs": [],
      "payable": false,
      "stateMutability": "nonpayable",
      "type": "function"
    },
    {
      "constant": false,
      "inputs": [
        {
          "name": "account",
          "type": "string"
        }
      ],
      "name": "update_Txn_UserStockvalue",
      "outputs": [],
      "payable": false,
      "stateMutability": "nonpayable",
      "type": "function"
    },
    {
      "constant": false,
      "inputs": [
        {
          "name": "account",
          "type": "string"
        },
        {
          "name": "stockId",
          "type": "string"
        },
        {
          "name": "stock_Number",
          "type": "int256"
        }
      ],
      "name": "trade_sell_UserStock",
      "outputs": [],
      "payable": false,
      "stateMutability": "nonpayable",
      "type": "function"
    },
    {
      "constant": true,
      "inputs": [],
      "name": "gettest",
      "outputs": [
        {
          "name": "",
          "type": "uint256"
        }
      ],
      "payable": false,
      "stateMutability": "view",
      "type": "function"
    },
    {
      "constant": false,
      "inputs": [],
      "name": "deletetest",
      "outputs": [],
      "payable": false,
      "stateMutability": "nonpayable",
      "type": "function"
    },
    {
      "constant": true,
      "inputs": [],
      "name": "arraytest1",
      "outputs": [
        {
          "name": "",
          "type": "uint256[]"
        }
      ],
      "payable": false,
      "stateMutability": "view",
      "type": "function"
    }
  ],
  "bytecode": "0x6000600690815561014060405260016080908152600260a052600360c052600460e0526005610100526101208290526200003d916007919062000094565b503480156200004b57600080fd5b5060405160208062003367833981018060405260208110156200006d57600080fd5b5051600080546001600160a01b0319166001600160a01b0390921691909117905562000109565b828054828255906000526020600020908101928215620000d7579160200282015b82811115620000d7578251829060ff16905591602001919060010190620000b5565b50620000e5929150620000e9565b5090565b6200010691905b80821115620000e55760008155600101620000f0565b90565b61324e80620001196000396000f3fe608060405234801561001057600080fd5b506004361061012b5760003560e01c80637f619199116100ad578063aa0f663211610071578063aa0f663214610d62578063ba7bcef914610e8d578063d3bfbbbb14610f31578063e1122f871461105c578063f0f56485146111005761012b565b80637f619199146109c357806387d6307014610a6757806393406fb414610b8a5780639c34578014610d3d578063a941ae4314610d5a5761012b565b8063406875ce116100f4578063406875ce14610392578063416256ce1461054557806353aa60fd146106fb5780635d5bcb291461070357806370842e021461091f5761012b565b8062706f08146101305780632103228f146101e8578063215ffb65146101f2578063276c17411461020f57806338f1d5d614610267575b600080fd5b6101d66004803603604081101561014657600080fd5b810190602081018135600160201b81111561016057600080fd5b82018360208201111561017257600080fd5b803590602001918460018302840111600160201b8311171561019357600080fd5b91908080601f0160208091040260200160405190810160405280939291908181526020018383808284376000920191909152509295505091359250611108915050565b60408051918252519081900360200190f35b6101f0611145565b005b6101d66004803603602081101561020857600080fd5b5035611161565b610217611180565b60408051602080825283518183015283519192839290830191858101910280838360005b8381101561025357818101518382015260200161023b565b505050509050019250505060405180910390f35b6101f06004803603606081101561027d57600080fd5b810190602081018135600160201b81111561029757600080fd5b8201836020820111156102a957600080fd5b803590602001918460018302840111600160201b831117156102ca57600080fd5b91908080601f0160208091040260200160405190810160405280939291908181526020018383808284376000920191909152509295949360208101935035915050600160201b81111561031c57600080fd5b82018360208201111561032e57600080fd5b803590602001918460018302840111600160201b8311171561034f57600080fd5b91908080601f01602080910402602001604051908101604052809392919081815260200183838082843760009201919091525092955050913592506111d9915050565b6101f0600480360360a08110156103a857600080fd5b810190602081018135600160201b8111156103c257600080fd5b8201836020820111156103d457600080fd5b803590602001918460018302840111600160201b831117156103f557600080fd5b91908080601f0160208091040260200160405190810160405280939291908181526020018383808284376000920191909152509295949360208101935035915050600160201b81111561044757600080fd5b82018360208201111561045957600080fd5b803590602001918460018302840111600160201b8311171561047a57600080fd5b91908080601f0160208091040260200160405190810160405280939291908181526020018383808284376000920191909152509295949360208101935035915050600160201b8111156104cc57600080fd5b8201836020820111156104de57600080fd5b803590602001918460018302840111600160201b831117156104ff57600080fd5b91908080601f0160208091040260200160405190810160405280939291908181526020018383808284376000920191909152509295505082359350505060200135611918565b61066e6004803603604081101561055b57600080fd5b810190602081018135600160201b81111561057557600080fd5b82018360208201111561058757600080fd5b803590602001918460018302840111600160201b831117156105a857600080fd5b91908080601f0160208091040260200160405190810160405280939291908181526020018383808284376000920191909152509295949360208101935035915050600160201b8111156105fa57600080fd5b82018360208201111561060c57600080fd5b803590602001918460018302840111600160201b8311171561062d57600080fd5b91908080601f0160208091040260200160405190810160405280939291908181526020018383808284376000920191909152509295506120bf945050505050565b6040518080602001858152602001848152602001838152602001828103825286818151815260200191508051906020019080838360005b838110156106bd5781810151838201526020016106a5565b50505050905090810190601f1680156106ea5780820380516001836020036101000a031916815260200191505b509550505050505060405180910390f35b610217612195565b61082c6004803603604081101561071957600080fd5b810190602081018135600160201b81111561073357600080fd5b82018360208201111561074557600080fd5b803590602001918460018302840111600160201b8311171561076657600080fd5b91908080601f0160208091040260200160405190810160405280939291908181526020018383808284376000920191909152509295949360208101935035915050600160201b8111156107b857600080fd5b8201836020820111156107ca57600080fd5b803590602001918460018302840111600160201b831117156107eb57600080fd5b91908080601f0160208091040260200160405190810160405280939291908181526020018383808284376000920191909152509295506121eb945050505050565b604051808060200180602001868152602001858152602001848152602001838103835288818151815260200191508051906020019080838360005b8381101561087f578181015183820152602001610867565b50505050905090810190601f1680156108ac5780820380516001836020036101000a031916815260200191505b50838103825287518152875160209182019189019080838360005b838110156108df5781810151838201526020016108c7565b50505050905090810190601f16801561090c5780820380516001836020036101000a031916815260200191505b5097505050505050505060405180910390f35b6101f06004803603602081101561093557600080fd5b810190602081018135600160201b81111561094f57600080fd5b82018360208201111561096157600080fd5b803590602001918460018302840111600160201b8311171561098257600080fd5b91908080601f0160208091040260200160405190810160405280939291908181526020018383808284376000920191909152509295506123a0945050505050565b610217600480360360208110156109d957600080fd5b810190602081018135600160201b8111156109f357600080fd5b820183602082011115610a0557600080fd5b803590602001918460018302840111600160201b83111715610a2657600080fd5b91908080601f016020809104026020016040519081016040528093929190818152602001838380828437600092019190915250929550612429945050505050565b610b0b60048036036020811015610a7d57600080fd5b810190602081018135600160201b811115610a9757600080fd5b820183602082011115610aa957600080fd5b803590602001918460018302840111600160201b83111715610aca57600080fd5b91908080601f0160208091040260200160405190810160405280939291908181526020018383808284376000920191909152509295506124d7945050505050565b6040518080602001838152602001828103825284818151815260200191508051906020019080838360005b83811015610b4e578181015183820152602001610b36565b50505050905090810190601f168015610b7b5780820380516001836020036101000a031916815260200191505b50935050505060405180910390f35b6101f0600480360360a0811015610ba057600080fd5b810190602081018135600160201b811115610bba57600080fd5b820183602082011115610bcc57600080fd5b803590602001918460018302840111600160201b83111715610bed57600080fd5b91908080601f0160208091040260200160405190810160405280939291908181526020018383808284376000920191909152509295949360208101935035915050600160201b811115610c3f57600080fd5b820183602082011115610c5157600080fd5b803590602001918460018302840111600160201b83111715610c7257600080fd5b91908080601f0160208091040260200160405190810160405280939291908181526020018383808284376000920191909152509295949360208101935035915050600160201b811115610cc457600080fd5b820183602082011115610cd657600080fd5b803590602001918460018302840111600160201b83111715610cf757600080fd5b91908080601f01602080910402602001604051908101604052809392919081815260200183838082843760009201919091525092955050823593505050602001356125f9565b6101d660048036036020811015610d5357600080fd5b50356127f5565b6101d6612803565b6101f060048036036060811015610d7857600080fd5b810190602081018135600160201b811115610d9257600080fd5b820183602082011115610da457600080fd5b803590602001918460018302840111600160201b83111715610dc557600080fd5b91908080601f0160208091040260200160405190810160405280939291908181526020018383808284376000920191909152509295949360208101935035915050600160201b811115610e1757600080fd5b820183602082011115610e2957600080fd5b803590602001918460018302840111600160201b83111715610e4a57600080fd5b91908080601f0160208091040260200160405190810160405280939291908181526020018383808284376000920191909152509295505091359250612809915050565b6101f060048036036020811015610ea357600080fd5b810190602081018135600160201b811115610ebd57600080fd5b820183602082011115610ecf57600080fd5b803590602001918460018302840111600160201b83111715610ef057600080fd5b91908080601f0160208091040260200160405190810160405280939291908181526020018383808284376000920191909152509295506128ea945050505050565b6101f060048036036060811015610f4757600080fd5b810190602081018135600160201b811115610f6157600080fd5b820183602082011115610f7357600080fd5b803590602001918460018302840111600160201b83111715610f9457600080fd5b91908080601f0160208091040260200160405190810160405280939291908181526020018383808284376000920191909152509295949360208101935035915050600160201b811115610fe657600080fd5b820183602082011115610ff857600080fd5b803590602001918460018302840111600160201b8311171561101957600080fd5b91908080601f0160208091040260200160405190810160405280939291908181526020018383808284376000920191909152509295505091359250612ed1915050565b610b0b6004803603602081101561107257600080fd5b810190602081018135600160201b81111561108c57600080fd5b82018360208201111561109e57600080fd5b803590602001918460018302840111600160201b831117156110bf57600080fd5b91908080601f016020809104026020016040519081016040528093929190818152602001838380828437600092019190915250929550613044945050505050565b6102176130f2565b8151602081840181018051600382529282019185019190912091905280548290811061113057fe5b90600052602060002001600091509150505481565b60078054600390811061115457fe5b6000918252602082200155565b600580548290811061116f57fe5b600091825260209091200154905081565b606060078054806020026020016040519081016040528092919081815260200182805480156111ce57602002820191906000526020600020905b8154815260200190600101908083116111ba575b505050505090505b90565b60208281015160008054604051600160e11b633870cd1b0281526004810185815288516024830152885194956001600160a01b03909316946370e19a36948a9492938493604490910192908601918190849084905b8381101561124657818101518382015260200161122e565b50505050905090810190601f1680156112735780820380516001836020036101000a031916815260200191505b5092505050602060405180830381600087803b15801561129257600080fd5b505af11580156112a6573d6000803e3d6000fd5b505050506040513d60208110156112bc57600080fd5b50511561191257816001856040518082805190602001908083835b602083106112f65780518252601f1990920191602091820191016112d7565b51815160209384036101000a6000190180199092169116179052920194855250604051938490038101842088519094899450925082918401908083835b602083106113525780518252601f199092019160209182019101611333565b51815160209384036101000a60001901801990921691161790529201948552506040519384900301909220600201549290921291506119129050576000826001866040518082805190602001908083835b602083106113c25780518252601f1990920191602091820191016113a3565b51815160209384036101000a60001901801990921691161790529201948552506040519384900381018420895190948a9450925082918401908083835b6020831061141e5780518252601f1990920191602091820191016113ff565b6001836020036101000a038019825116818451168082178552505050505050905001915050908152602001604051809103902060010154029050826001866040518082805190602001908083835b6020831061148b5780518252601f19909201916020918201910161146c565b51815160209384036101000a60001901801990921691161790529201948552506040519384900381018420895190948a9450925082918401908083835b602083106114e75780518252601f1990920191602091820191016114c8565b51815160209384036101000a60001901801990921691161790529201948552506040519384900381018420600201548a51959003946001948b9450925082918401908083835b6020831061154c5780518252601f19909201916020918201910161152d565b51815160209384036101000a60001901801990921691161790529201948552506040519384900381018420895190948a9450925082918401908083835b602083106115a85780518252601f199092019160209182019101611589565b51815160209384036101000a6000190180199092169116179052920194855250604051938490038101842060020194909455505060008054600160e01b6381879cf502835260048301848152895160248501528951929485946001600160a01b03909316936381879cf5938c93928392604490920191908501908083838b5b8381101561163f578181015183820152602001611627565b50505050905090810190601f16801561166c5780820380516001836020036101000a031916815260200191505b50925050506040805180830381600087803b15801561168a57600080fd5b505af115801561169e573d6000803e3d6000fd5b505050506040513d60408110156116b457600080fd5b50805160209182015160008054604051600160e11b6359dd52d30281529388016024850181905292889003604485018190526060600486019081528d5160648701528d519498509096506001600160a01b039091169463b3baa5a6948d948994899493849360840192908801918190849084905b83811015611740578181015183820152602001611728565b50505050905090810190601f16801561176d5780820380516001836020036101000a031916815260200191505b50945050505050600060405180830381600087803b15801561178e57600080fd5b505af11580156117a2573d6000803e3d6000fd5b5050505060606003886040518082805190602001908083835b602083106117da5780518252601f1990920191602091820191016117bb565b51815160209384036101000a60001901801990921691161790529201948552506040805194859003820185208054808402870184019092528186529350915083018282801561184857602002820191906000526020600020905b815481526020019060010190808311611834575b50939450600093505050505b815181101561190c576000828281518110151561186d57fe5b906020019060200201519050868114156119035760038a6040518082805190602001908083835b602083106118b35780518252601f199092019160209182019101611894565b51815160209384036101000a60001901801990921691161790529201948552506040519384900301909220805490925084915081106118ee57fe5b60009182526020822001556006805460030190555b50600101611854565b50505050505b50505050565b60208481015160008054604051600160e11b633870cd1b028152600481018581528a5160248301528a5194956001600160a01b03909316946370e19a36948c9492938493604490910192908601918190849084905b8381101561198557818101518382015260200161196d565b50505050905090810190601f1680156119b25780820380516001836020036101000a031916815260200191505b5092505050602060405180830381600087803b1580156119d157600080fd5b505af11580156119e5573d6000803e3d6000fd5b505050506040513d60208110156119fb57600080fd5b5051156120b757836001876040518082805190602001908083835b60208310611a355780518252601f199092019160209182019101611a16565b51815160209384036101000a600019018019909216911617905292019485525060405193849003810184208a5190948b9450925082918401908083835b60208310611a915780518252601f199092019160209182019101611a72565b51815160209384036101000a60001901801990921691161790529201948552506040519384900381019093208451611ad29591949190910192509050613148565b50826001876040518082805190602001908083835b60208310611b065780518252601f199092019160209182019101611ae7565b51815160209384036101000a600019018019909216911617905292019485525060405193849003810184208a5190948b9450925082918401908083835b60208310611b625780518252601f199092019160209182019101611b43565b51815160209384036101000a600019018019909216911617905292019485525060405193849003810184206001908101959095558a518795948c9450925082918401908083835b60208310611bc85780518252601f199092019160209182019101611ba9565b51815160209384036101000a600019018019909216911617905292019485525060405193849003810184208a5190948b9450925082918401908083835b60208310611c245780518252601f199092019160209182019101611c05565b51815160209384036101000a60001901801990921691161790529201948552506040519384900381018420600201548b519501946001948c9450925082918401908083835b60208310611c885780518252601f199092019160209182019101611c69565b51815160209384036101000a600019018019909216911617905292019485525060405193849003810184208a5190948b9450925082918401908083835b60208310611ce45780518252601f199092019160209182019101611cc5565b51815160209384036101000a60001901801990921691161790529201948552506040519384900381018420600201949094555050875142926001928a9290918291908401908083835b60208310611d4c5780518252601f199092019160209182019101611d2d565b51815160209384036101000a600019018019909216911617905292019485525060405193849003810184208a5190948b9450925082918401908083835b60208310611da85780518252601f199092019160209182019101611d89565b51815160209384036101000a6000190180199092169116179052920194855250604051938490038101842060030194909455505060008054600160e01b6381879cf5028352600483018481528a5160248501528a5187890295939485946001600160a01b03909416936381879cf5938e9390928392604490910191908501908083838b5b83811015611e44578181015183820152602001611e2c565b50505050905090810190601f168015611e715780820380516001836020036101000a031916815260200191505b50925050506040805180830381600087803b158015611e8f57600080fd5b505af1158015611ea3573d6000803e3d6000fd5b505050506040513d6040811015611eb957600080fd5b5080516020909101519092509050828212611fbd57828203915082810190506000809054906101000a90046001600160a01b03166001600160a01b031663b3baa5a68a84846040518463ffffffff1660e01b81526004018080602001848152602001838152602001828103825285818151815260200191508051906020019080838360005b83811015611f56578181015183820152602001611f3e565b50505050905090810190601f168015611f835780820380516001836020036101000a031916815260200191505b50945050505050600060405180830381600087803b158015611fa457600080fd5b505af1158015611fb8573d6000803e3d6000fd5b505050505b600160005b600554811015611ffa5785600582815481101515611fdc57fe5b90600052602060002001541415611ff257600091505b600101611fc2565b506001811515141561203c57600580546001810182556000919091527f036b6384b5eca791c62761152d0c79bb0604c104a5fb6f4eb0703f3154bb3db0018590555b60038a6040518082805190602001908083835b6020831061206e5780518252601f19909201916020918201910161204f565b51815160209384036101000a6000190180199092169116179052920194855250604051938490038101909320805460018101825560009182529390209092018790555050505050505b505050505050565b81516020818401810180516001808352938301958301959095209490528251808401820180519581529082019382019390932093909252825460408051600293831615610100026000190190921692909204601f8101849004840282018401909252818152918391908301828280156121795780601f1061214e57610100808354040283529160200191612179565b820191906000526020600020905b81548152906001019060200180831161215c57829003601f168201915b5050505050908060010154908060020154908060030154905084565b606060048054806020026020016040519081016040528092919081815260200182805480156111ce57602002820191906000526020600020908154815260200190600101908083116111ba575050505050905090565b60608060008060006121fb6131c6565b6001886040518082805190602001908083835b6020831061222d5780518252601f19909201916020918201910161220e565b51815160209384036101000a600019018019909216911617905292019485525060405193849003810184208b5190948c9450925082918401908083835b602083106122895780518252601f19909201916020918201910161226a565b518151600019602094850361010090810a82019283169219939093169190911790925294909201968752604080519788900382018820805460a0601f6002600184161590990290960190911696909604938401839004909202880185019052608087018281529095508694509285925084018282801561234a5780601f1061231f5761010080835404028352916020019161234a565b820191906000526020600020905b81548152906001019060200180831161232d57829003601f168201915b505050505081526020016001820154815260200160028201548152602001600382015481525050905080600001518782602001518360400151846060015184945095509550955095509550509295509295909350565b6020810151600160005b6004548110156123e257826004828154811015156123c457fe5b906000526020600020015414156123da57600091505b6001016123aa565b506001811515141561242457600480546001810182556000919091527f8a35acfbc15ff81a39ae7d344fd709f28e8600b4aa8c65c6b64bfe7fe36bd19b018290555b505050565b60606003826040518082805190602001908083835b6020831061245d5780518252601f19909201916020918201910161243e565b51815160209384036101000a6000190180199092169116179052920194855250604080519485900382018520805480840287018401909252818652935091508301828280156124cb57602002820191906000526020600020905b8154815260200190600101908083116124b7575b50505050509050919050565b606060006124e36131ee565b6002846040518082805190602001908083835b602083106125155780518252601f1990920191602091820191016124f6565b518151600019602094850361010090810a8201928316921993909316919091179092529490920196875260408051978890038201882080546060601f60026001841615909902909601909116969096049384018390049092028801850181528701828152909550869450928592508401828280156125d45780601f106125a9576101008083540402835291602001916125d4565b820191906000526020600020905b8154815290600101906020018083116125b757829003601f168201915b5050509183525050600191909101546020918201528151910151909350915050915091565b60008054604051600160e11b633870cd1b0281526020600482018181528951602484015289516001600160a01b03909416946370e19a36948b94929384936044019290860191908190849084905b8381101561265f578181015183820152602001612647565b50505050905090810190601f16801561268c5780820380516001836020036101000a031916815260200191505b5092505050602060405180830381600087803b1580156126ab57600080fd5b505af11580156126bf573d6000803e3d6000fd5b505050506040513d60208110156126d557600080fd5b5051156127ee576040518060800160405280848152602001838152602001828152602001428152506001866040518082805190602001908083835b6020831061272f5780518252601f199092019160209182019101612710565b51815160209384036101000a60001901801990921691161790529201948552506040519384900381018420895190948a9450925082918401908083835b6020831061278b5780518252601f19909201916020918201910161276c565b51815160209384036101000a60001901801990921691161790529201948552506040519384900381019093208451805191946127cc94508593500190613148565b5060208201516001820155604082015160028201556060909101516003909101555b5050505050565b600480548290811061116f57fe5b60065490565b816002846040518082805190602001908083835b6020831061283c5780518252601f19909201916020918201910161281d565b51815160209384036101000a6000190180199092169116179052920194855250604051938490038101909320845161287d9591949190910192509050613148565b50806002846040518082805190602001908083835b602083106128b15780518252601f199092019160209182019101612892565b51815160209384036101000a60001901801990921691161790529201948552506040519384900301909220600101929092555050505050565b60008054604051600160e11b633870cd1b028152602060048201818152855160248401528551859485946001600160a01b03909116936370e19a3693899390928392604490910191908501908083838b5b8381101561295357818101518382015260200161293b565b50505050905090810190601f1680156129805780820380516001836020036101000a031916815260200191505b5092505050602060405180830381600087803b15801561299f57600080fd5b505af11580156129b3573d6000803e3d6000fd5b505050506040513d60208110156129c957600080fd5b5051156119125760606003856040518082805190602001908083835b60208310612a045780518252601f1990920191602091820191016129e5565b51815160209384036101000a600019018019909216911617905292019485525060408051948590038201852080548084028701840190925281865293509150830182828015612a7257602002820191906000526020600020905b815481526020019060010190808311612a5e575b50939450600093505050505b8151811015612d375760008282815181101515612a9757fe5b602090810290910101519050606060005b60208160ff16108015612ad657508260ff821660208110612ac557fe5b1a60f81b6001600160f81b03191615155b15612ae357600101612aa8565b60608160ff166040519080825280601f01601f191660200182016040528015612b13576020820181803883390190505b509050600091505b60208260ff16108015612b4957508360ff831660208110612b3857fe5b1a60f81b6001600160f81b03191615155b15612b95578360ff831660208110612b5d57fe5b1a60f81b818360ff16815181101515612b7257fe5b9060200101906001600160f81b031916908160001a905350600190910190612b1b565b80925060018a6040518082805190602001908083835b60208310612bca5780518252601f199092019160209182019101612bab565b51815160209384036101000a6000190180199092169116179052920194855250604051938490038101842087519094889450925082918401908083835b60208310612c265780518252601f199092019160209182019101612c07565b51815160209384036101000a600019018019909216911617905292019485525060405193849003810184206001908101548f51909d5090948f9450925082918401908083835b60208310612c8b5780518252601f199092019160209182019101612c6c565b51815160209384036101000a6000190180199092169116179052920194855250604051938490038101842087519094889450925082918401908083835b60208310612ce75780518252601f199092019160209182019101612cc8565b51815160209384036101000a60001901801990921691161790529201948552506040519384900301909220600201548a81026103e8029b909b019a985050506001949094019350612a7e92505050565b506000805460408051600160e01b63f640c4d102815260248101889052600481019182528851604482015288516001600160a01b039093169363f640c4d1938a938a939092839260649092019160208701918190849084905b83811015612da8578181015183820152602001612d90565b50505050905090810190601f168015612dd55780820380516001836020036101000a031916815260200191505b509350505050600060405180830381600087803b158015612df557600080fd5b505af1158015612e09573d6000803e3d6000fd5b505060008054604051600160e01b630a4e61f90281526020600482018181528b5160248401528b516001600160a01b039094169650630a4e61f995508b9490938493604401928601918190849084905b83811015612e71578181015183820152602001612e59565b50505050905090810190601f168015612e9e5780820380516001836020036101000a031916815260200191505b5092505050600060405180830381600087803b158015612ebd57600080fd5b505af115801561190c573d6000803e3d6000fd5b60008054604051600160e11b633870cd1b0281526020600482018181528751602484015287516001600160a01b03909416946370e19a36948994929384936044019290860191908190849084905b83811015612f37578181015183820152602001612f1f565b50505050905090810190601f168015612f645780820380516001836020036101000a031916815260200191505b5092505050602060405180830381600087803b158015612f8357600080fd5b505af1158015612f97573d6000803e3d6000fd5b505050506040513d6020811015612fad57600080fd5b50511561242457806001846040518082805190602001908083835b60208310612fe75780518252601f199092019160209182019101612fc8565b51815160001960209485036101000a0190811690199190911617905292019485525060405193849003810184208751909488945092508291840190808383602083106128b15780518252601f199092019160209182019101612892565b805180820160209081018051600280835293830194830194909420939052825460408051601f6000196101006001861615020190931694909404918201839004830284018301905280835283918301828280156130e25780601f106130b7576101008083540402835291602001916130e2565b820191906000526020600020905b8154815290600101906020018083116130c557829003601f168201915b5050505050908060010154905082565b606060058054806020026020016040519081016040528092919081815260200182805480156111ce57602002820191906000526020600020908154815260200190600101908083116111ba575050505050905090565b828054600181600116156101000203166002900490600052602060002090601f016020900481019282601f1061318957805160ff19168380011785556131b6565b828001600101855582156131b6579182015b828111156131b657825182559160200191906001019061319b565b506131c2929150613208565b5090565b6040518060800160405280606081526020016000815260200160008152602001600081525090565b604051806040016040528060608152602001600081525090565b6111d691905b808211156131c2576000815560010161320e56fea165627a7a72305820c3206a5e873c9cafa247c9cc355b761ecfe98778ec8f6b5799bd0c022f31bb640029",
  "source": "// SPDX-License-Identifier: MIT\r\npragma solidity >=0.4.22 <0.9.0;\r\nimport \"./UserManagement.sol\";\r\n\r\n//\r\ncontract StockManagement {\r\n    \r\n    UserManagement UM; //global\r\n    \r\n    constructor(address um_addr) public { \r\n        UserManagement um = UserManagement(um_addr); //get contract\r\n        UM = um;\r\n    }\r\n    \r\n    //\r\n    mapping(string => mapping(string => stockTxn)) public stock;\r\n    struct stockTxn{\r\n        string stock_Name;     //\r\n        int stock_NowPrice;    //\r\n        int stock_Number;      //\r\n        uint stock_calltime;   //\r\n    }\r\n    \r\n    // +mapping\r\n    mapping(string => StockData) public allStockData;//\r\n    struct StockData {\r\n        string stock_Name;      //\r\n        int stock_NowPrice;    //\r\n    }\r\n    \r\n    // mapping\r\n    mapping(string => bytes32[]) public buy_allStockData;\r\n    \r\n    // +id array()\r\n    bytes32[] public search_allStockId;\r\n    \r\n    // +array\r\n    bytes32[] public buy_allStockId;\r\n\r\n    // +FUNCTION(id array + )\r\n    function search_StockId(string memory stockId) public {\r\n        bytes32 bytes_stockId;\r\n        assembly {\r\n            bytes_stockId := mload(add(stockId, 32))\r\n        }\r\n        \r\n        bool stock_state = true;\r\n        for(uint i = 0 ; i < search_allStockId.length ; i++) {\r\n            if(search_allStockId[i] == bytes_stockId){\r\n                stock_state = false;\r\n            }\r\n        }\r\n        if(stock_state == true){\r\n            search_allStockId.push(bytes_stockId);\r\n        }\r\n    }\r\n    \r\n    // +FUNCTION\r\n    function get_search_allStockId() public view returns(bytes32[] memory){\r\n        return search_allStockId;\r\n    }\r\n    \r\n    // +function()\r\n    function update_StockData(string memory stockId, string memory stock_Name, int stock_NowPrice) public{\r\n        allStockData[stockId].stock_Name = stock_Name;\r\n        allStockData[stockId].stock_NowPrice = stock_NowPrice;\r\n    }\r\n    \r\n    //mapping\r\n    function inputStockId_getStockData(string memory stockId) public view returns(string memory, int){\r\n        StockData memory S = allStockData[stockId];\r\n        return (S.stock_Name, S.stock_NowPrice);\r\n    }\r\n\r\n    //\r\n    function set_User_StockId(string memory account, string memory stockId, string memory stock_Name, int stock_NowPrice, int stock_Number) public{\r\n        if(UM.user_IsExist(account)) {\r\n            stock[account][stockId] = stockTxn(stock_Name, stock_NowPrice, stock_Number, block.timestamp); \r\n        }\r\n    }\r\n\r\n    function get_User_StockId(string memory account, string memory stockId) public view returns(string memory, string memory, int, int, uint){\r\n        stockTxn memory t = stock[account][stockId]; //txn mapping\r\n        return (t.stock_Name, stockId, t.stock_NowPrice, t.stock_Number, t.stock_calltime);\r\n    }\r\n    \r\n    //\r\n    function trade_buy_Stock(string memory account, string memory stockId, string memory stock_Name, int stock_NowPrice, int stock_Number) public{\r\n        bytes32 buy_bytes_stockId;\r\n        assembly {\r\n            buy_bytes_stockId := mload(add(stockId, 32))\r\n        }\r\n        if(UM.user_IsExist(account)) {\r\n            //stock[account][stockId].stock_Name = stockTxn(stock_Name, stock_NowPrice, stock_Number); \r\n            stock[account][stockId].stock_Name = stock_Name; \r\n            stock[account][stockId].stock_NowPrice = stock_NowPrice;\r\n            stock[account][stockId].stock_Number = stock[account][stockId].stock_Number + stock_Number;\r\n            stock[account][stockId].stock_calltime = block.timestamp;\r\n            int expenseStock = stock_NowPrice * stock_Number;       //* = ()\r\n            (int cash, int value) = UM.get_UserMoney(account);             //UserManagecashvalue\r\n            if(cash >= expenseStock){                       //\r\n                cash = cash - expenseStock;                 //\r\n                value = value + expenseStock;               //\r\n                UM.update_UserMoney(account, cash, value);   //\r\n            }\r\n            //\r\n            bool stock_state = true;\r\n            for(uint i = 0 ; i < buy_allStockId.length ; i++) {\r\n                if(buy_allStockId[i] == buy_bytes_stockId){\r\n                    stock_state = false;\r\n                }\r\n            }\r\n            if(stock_state == true){\r\n                buy_allStockId.push(buy_bytes_stockId);\r\n            }\r\n            //\r\n            buy_allStockData[account].push(buy_bytes_stockId);\r\n        }\r\n    }\r\n    \r\n    // +FUNCTION\r\n    //FUNCTION\r\n    function get_Txn_allStockId() public view returns(bytes32[] memory){\r\n        return buy_allStockId;\r\n    }\r\n    \r\n    // +FUNCTION\r\n    //FUNCTION\r\n    function get_Txn_userStockId(string memory account) public view returns(bytes32[] memory){\r\n        return buy_allStockData[account];\r\n    }\r\n    \r\n    //\r\n    // function hold_UserStock(string memory account) public view returns(bytes32[] memory){\r\n    //     buy_allStockData[account] = stockTxn(stock_NowPrice, stock_Number);\r\n    //     return buy_allStockId;\r\n    // }\r\n    \r\n    //\r\n    function update_UserStockvalue(string memory account, string memory stockId, int stock_NowPrice) public{\r\n        if(UM.user_IsExist(account)){\r\n            //stock[account][stockId] = stockTxn(stock_Name, stock_NowPrice, stock_Number); \r\n            stock[account][stockId].stock_NowPrice = stock_NowPrice;\r\n            //uint update_expenseStock = stock_NowPrice * stock_Number;\r\n            // (uint value) = UM.get_UserStockValue(account);\r\n            //stock[account][stockId].stock_NowPrice =  update_expenseStock;\r\n            //UM.update_UserStockValue(account, stock[account][stockId].stock_NowPrice);\r\n        }\r\n    }\r\n    \r\n    //\r\n    function update_Txn_UserStockvalue(string memory account) public {\r\n        int update_stockvalue = 0;\r\n        int update_price;              \r\n        int update_number;             \r\n        if(UM.user_IsExist(account)){\r\n            bytes32 []memory buyallStockData = buy_allStockData[account];\r\n            for(uint i=0 ; i < buyallStockData.length ; i++){\r\n                bytes32 temp = buyallStockData[i];\r\n                string memory convertUserStockvalue;\r\n                uint8 j = 0;\r\n                while(j < 32 && temp[j] != 0) {\r\n                    j++;\r\n                }\r\n                bytes memory bytesArray = new bytes(j);\r\n                for (j = 0; j < 32 && temp[j] != 0; j++) {\r\n                    bytesArray[j] = temp[j];\r\n                }\r\n                convertUserStockvalue = string(bytesArray);\r\n                update_price = stock[account][convertUserStockvalue].stock_NowPrice;\r\n                update_number = stock[account][convertUserStockvalue].stock_Number;\r\n                update_stockvalue = update_stockvalue + update_price * update_number * 1000;\r\n            }\r\n            UM.update_UserStockValue(account, update_stockvalue);\r\n            UM.update_UserRateOfReturn(account);\r\n        }\r\n    }\r\n    uint test = 0;\r\n    //\r\n    function trade_sell_UserStock(string memory account, string memory stockId, int stock_Number) public{\r\n        bytes32 sell_bytes_stockId;\r\n        assembly {\r\n            sell_bytes_stockId := mload(add(stockId, 32))\r\n        }\r\n        \r\n        if(UM.user_IsExist(account)){\r\n            if(stock[account][stockId].stock_Number >= stock_Number)  {\r\n                int earnStock = stock[account][stockId].stock_NowPrice * stock_Number;\r\n                stock[account][stockId].stock_Number = stock[account][stockId].stock_Number - stock_Number;\r\n                (int cash, int value) = UM.get_UserMoney(account); \r\n                cash = cash + earnStock;                    //\r\n                value = value - earnStock;                  //\r\n                UM.update_UserMoney(account, cash, value);   //\r\n                \r\n                bytes32 []memory buyallStockData = buy_allStockData[account];\r\n                for(uint i=0 ; i < buyallStockData.length ; i++){\r\n                    bytes32 temp = buyallStockData[i];\r\n                    if(temp == sell_bytes_stockId){\r\n                        delete buy_allStockData[account][i];\r\n                        test = test+3;\r\n                    //\r\n                    //buy_allStockData[account].pop(sell_bytes_stockId);\r\n                    }\r\n                }\r\n            }  \r\n        }\r\n    }\r\n\r\n    function gettest() public view returns(uint){\r\n        return test;\r\n    }\r\n    \r\n    uint[] arraytest = [1,2,3,4,5,6];\r\n    function deletetest() public{\r\n        delete arraytest[3];\r\n    }\r\n    function arraytest1() public view returns(uint[] memory){\r\n        return arraytest;\r\n    }\r\n}",
  "sourcePath": "C:/Users/yang/my-Block-Stock/contracts/StockManagement.sol",
  "compiler": {
    "name": "solc",
    "version": "0.5.5+commit.47a71e8f.Emscripten.clang"
  },
  "schemaVersion": "3.3.3",
  "updatedAt": "2021-10-25T14:20:50.177Z",
  "networkType": "ethereum",
  "devdoc": {
    "methods": {}
  },
  "userdoc": {
    "methods": {}
  }
}