{
  "contractName": "UserManagement",
  "abi": [
    {
      "constant": true,
      "inputs": [
        {
          "name": "",
          "type": "uint256"
        }
      ],
      "name": "all_Useraccount",
      "outputs": [
        {
          "name": "",
          "type": "bytes32"
        }
      ],
      "payable": false,
      "stateMutability": "view",
      "type": "function"
    },
    {
      "constant": true,
      "inputs": [
        {
          "name": "",
          "type": "string"
        }
      ],
      "name": "person",
      "outputs": [
        {
          "name": "user_name",
          "type": "string"
        },
        {
          "name": "user_password",
          "type": "string"
        },
        {
          "name": "user_grade",
          "type": "string"
        },
        {
          "name": "user_major",
          "type": "string"
        },
        {
          "name": "user_cash",
          "type": "int256"
        },
        {
          "name": "user_stockvalue",
          "type": "int256"
        },
        {
          "name": "user_RateOfReturn",
          "type": "int256"
        },
        {
          "name": "user_calltime",
          "type": "uint256"
        }
      ],
      "payable": false,
      "stateMutability": "view",
      "type": "function"
    },
    {
      "constant": false,
      "inputs": [
        {
          "name": "_useraccount",
          "type": "string"
        },
        {
          "name": "user_name",
          "type": "string"
        },
        {
          "name": "user_password",
          "type": "string"
        },
        {
          "name": "user_grade",
          "type": "string"
        },
        {
          "name": "user_major",
          "type": "string"
        }
      ],
      "name": "setUser",
      "outputs": [],
      "payable": false,
      "stateMutability": "nonpayable",
      "type": "function"
    },
    {
      "constant": true,
      "inputs": [
        {
          "name": "_useraccount",
          "type": "string"
        },
        {
          "name": "user_password",
          "type": "string"
        }
      ],
      "name": "get_User",
      "outputs": [
        {
          "name": "",
          "type": "string"
        }
      ],
      "payable": false,
      "stateMutability": "view",
      "type": "function"
    },
    {
      "constant": true,
      "inputs": [
        {
          "name": "_useraccount",
          "type": "string"
        }
      ],
      "name": "getMoney",
      "outputs": [
        {
          "name": "",
          "type": "int256"
        },
        {
          "name": "",
          "type": "int256"
        }
      ],
      "payable": false,
      "stateMutability": "view",
      "type": "function"
    },
    {
      "constant": true,
      "inputs": [],
      "name": "get_allUser",
      "outputs": [
        {
          "name": "",
          "type": "bytes32[]"
        }
      ],
      "payable": false,
      "stateMutability": "view",
      "type": "function"
    },
    {
      "constant": false,
      "inputs": [
        {
          "name": "_useraccount",
          "type": "string"
        }
      ],
      "name": "user_IsExist",
      "outputs": [
        {
          "name": "",
          "type": "bool"
        }
      ],
      "payable": false,
      "stateMutability": "nonpayable",
      "type": "function"
    },
    {
      "constant": false,
      "inputs": [
        {
          "name": "_useraccount",
          "type": "string"
        }
      ],
      "name": "get_UserMoney",
      "outputs": [
        {
          "name": "",
          "type": "int256"
        },
        {
          "name": "",
          "type": "int256"
        }
      ],
      "payable": false,
      "stateMutability": "nonpayable",
      "type": "function"
    },
    {
      "constant": false,
      "inputs": [
        {
          "name": "_useraccount",
          "type": "string"
        }
      ],
      "name": "get_UserStockValue",
      "outputs": [
        {
          "name": "",
          "type": "int256"
        }
      ],
      "payable": false,
      "stateMutability": "nonpayable",
      "type": "function"
    },
    {
      "constant": false,
      "inputs": [
        {
          "name": "_useraccount",
          "type": "string"
        },
        {
          "name": "cash",
          "type": "int256"
        },
        {
          "name": "stockvalue",
          "type": "int256"
        }
      ],
      "name": "update_UserMoney",
      "outputs": [],
      "payable": false,
      "stateMutability": "nonpayable",
      "type": "function"
    },
    {
      "constant": false,
      "inputs": [
        {
          "name": "_useraccount",
          "type": "string"
        },
        {
          "name": "stockvalue",
          "type": "int256"
        }
      ],
      "name": "update_UserStockValue",
      "outputs": [],
      "payable": false,
      "stateMutability": "nonpayable",
      "type": "function"
    },
    {
      "constant": false,
      "inputs": [
        {
          "name": "_useraccount",
          "type": "string"
        }
      ],
      "name": "update_UserRateOfReturn",
      "outputs": [],
      "payable": false,
      "stateMutability": "nonpayable",
      "type": "function"
    },
    {
      "constant": false,
      "inputs": [
        {
          "name": "account",
          "type": "string"
        },
        {
          "name": "password",
          "type": "string"
        }
      ],
      "name": "input_User",
      "outputs": [],
      "payable": false,
      "stateMutability": "nonpayable",
      "type": "function"
    },
    {
      "constant": true,
      "inputs": [],
      "name": "geta",
      "outputs": [
        {
          "name": "",
          "type": "int256"
        }
      ],
      "payable": false,
      "stateMutability": "view",
      "type": "function"
    }
  ],
  "bytecode": "0x6080604052600060025534801561001557600080fd5b50611f07806100256000396000f3fe608060405234801561001057600080fd5b50600436106100ea5760003560e01c8063b3baa5a61161008c578063f219b23c11610066578063f219b23c1461093c578063f3b1fbef146109e0578063f640c4d114610b09578063fc16b23514610baf576100ea565b8063b3baa5a6146105be578063ca96d8b014610667578063ded0d76a14610684576100ea565b806370e19a36116100c857806370e19a361461025357806381879cf51461030b5780638f00dc78146103c8578063a57b78a414610566576100ea565b80630454e7bc146100ef5780630a4e61f9146101a55780636bf6b0381461024b575b600080fd5b6101936004803603602081101561010557600080fd5b810190602081018135600160201b81111561011f57600080fd5b82018360208201111561013157600080fd5b803590602001918460018302840111600160201b8311171561015257600080fd5b91908080601f016020809104026020016040519081016040528093929190818152602001838380828437600092019190915250929550610e19945050505050565b60408051918252519081900360200190f35b610249600480360360208110156101bb57600080fd5b810190602081018135600160201b8111156101d557600080fd5b8201836020820111156101e757600080fd5b803590602001918460018302840111600160201b8311171561020857600080fd5b91908080601f016020809104026020016040519081016040528093929190818152602001838380828437600092019190915250929550610e83945050505050565b005b610193610fc8565b6102f76004803603602081101561026957600080fd5b810190602081018135600160201b81111561028357600080fd5b82018360208201111561029557600080fd5b803590602001918460018302840111600160201b831117156102b657600080fd5b91908080601f016020809104026020016040519081016040528093929190818152602001838380828437600092019190915250929550610fcf945050505050565b604080519115158252519081900360200190f35b6103af6004803603602081101561032157600080fd5b810190602081018135600160201b81111561033b57600080fd5b82018360208201111561034d57600080fd5b803590602001918460018302840111600160201b8311171561036e57600080fd5b91908080601f016020809104026020016040519081016040528093929190818152602001838380828437600092019190915250929550611058945050505050565b6040805192835260208301919091528051918290030190f35b6104f1600480360360408110156103de57600080fd5b810190602081018135600160201b8111156103f857600080fd5b82018360208201111561040a57600080fd5b803590602001918460018302840111600160201b8311171561042b57600080fd5b91908080601f0160208091040260200160405190810160405280939291908181526020018383808284376000920191909152509295949360208101935035915050600160201b81111561047d57600080fd5b82018360208201111561048f57600080fd5b803590602001918460018302840111600160201b831117156104b057600080fd5b91908080601f01602080910402602001604051908101604052809392919081815260200183838082843760009201919091525092955061112d945050505050565b6040805160208082528351818301528351919283929083019185019080838360005b8381101561052b578181015183820152602001610513565b50505050905090810190601f1680156105585780820380516001836020036101000a031916815260200191505b509250505060405180910390f35b61056e6115c8565b60408051602080825283518183015283519192839290830191858101910280838360005b838110156105aa578181015183820152602001610592565b505050509050019250505060405180910390f35b610249600480360360608110156105d457600080fd5b810190602081018135600160201b8111156105ee57600080fd5b82018360208201111561060057600080fd5b803590602001918460018302840111600160201b8311171561062157600080fd5b91908080601f0160208091040260200160405190810160405280939291908181526020018383808284376000920191909152509295505082359350505060200135611620565b6101936004803603602081101561067d57600080fd5b50356116f4565b610249600480360360a081101561069a57600080fd5b810190602081018135600160201b8111156106b457600080fd5b8201836020820111156106c657600080fd5b803590602001918460018302840111600160201b831117156106e757600080fd5b91908080601f0160208091040260200160405190810160405280939291908181526020018383808284376000920191909152509295949360208101935035915050600160201b81111561073957600080fd5b82018360208201111561074b57600080fd5b803590602001918460018302840111600160201b8311171561076c57600080fd5b91908080601f0160208091040260200160405190810160405280939291908181526020018383808284376000920191909152509295949360208101935035915050600160201b8111156107be57600080fd5b8201836020820111156107d057600080fd5b803590602001918460018302840111600160201b831117156107f157600080fd5b91908080601f0160208091040260200160405190810160405280939291908181526020018383808284376000920191909152509295949360208101935035915050600160201b81111561084357600080fd5b82018360208201111561085557600080fd5b803590602001918460018302840111600160201b8311171561087657600080fd5b91908080601f0160208091040260200160405190810160405280939291908181526020018383808284376000920191909152509295949360208101935035915050600160201b8111156108c857600080fd5b8201836020820111156108da57600080fd5b803590602001918460018302840111600160201b831117156108fb57600080fd5b91908080601f016020809104026020016040519081016040528093929190818152602001838380828437600092019190915250929550611713945050505050565b6103af6004803603602081101561095257600080fd5b810190602081018135600160201b81111561096c57600080fd5b82018360208201111561097e57600080fd5b803590602001918460018302840111600160201b8311171561099f57600080fd5b91908080601f0160208091040260200160405190810160405280939291908181526020018383808284376000920191909152509295506118cc945050505050565b610249600480360360408110156109f657600080fd5b810190602081018135600160201b811115610a1057600080fd5b820183602082011115610a2257600080fd5b803590602001918460018302840111600160201b83111715610a4357600080fd5b91908080601f0160208091040260200160405190810160405280939291908181526020018383808284376000920191909152509295949360208101935035915050600160201b811115610a9557600080fd5b820183602082011115610aa757600080fd5b803590602001918460018302840111600160201b83111715610ac857600080fd5b91908080601f0160208091040260200160405190810160405280939291908181526020018383808284376000920191909152509295506119a6945050505050565b61024960048036036040811015610b1f57600080fd5b810190602081018135600160201b811115610b3957600080fd5b820183602082011115610b4b57600080fd5b803590602001918460018302840111600160201b83111715610b6c57600080fd5b91908080601f0160208091040260200160405190810160405280939291908181526020018383808284376000920191909152509295505091359250611b0e915050565b610c5360048036036020811015610bc557600080fd5b810190602081018135600160201b811115610bdf57600080fd5b820183602082011115610bf157600080fd5b803590602001918460018302840111600160201b83111715610c1257600080fd5b91908080601f016020809104026020016040519081016040528093929190818152602001838380828437600092019190915250929550611b79945050505050565b604051808060200180602001806020018060200189815260200188815260200187815260200186815260200185810385528d818151815260200191508051906020019080838360005b83811015610cb4578181015183820152602001610c9c565b50505050905090810190601f168015610ce15780820380516001836020036101000a031916815260200191505b5085810384528c5181528c516020918201918e019080838360005b83811015610d14578181015183820152602001610cfc565b50505050905090810190601f168015610d415780820380516001836020036101000a031916815260200191505b5085810383528b5181528b516020918201918d019080838360005b83811015610d74578181015183820152602001610d5c565b50505050905090810190601f168015610da15780820380516001836020036101000a031916815260200191505b5085810382528a5181528a516020918201918c019080838360005b83811015610dd4578181015183820152602001610dbc565b50505050905090810190601f168015610e015780820380516001836020036101000a031916815260200191505b509c5050505050505050505050505060405180910390f35b600080826040518082805190602001908083835b60208310610e4c5780518252601f199092019160209182019101610e2d565b51815160209384036101000a6000190180199092169116179052920194855250604051938490030190922060050154949350505050565b621e84806000826040518082805190602001908083835b60208310610eb95780518252601f199092019160209182019101610e9a565b51815160209384036101000a60001901801990921691161790529201948552506040519384900381018420600401548651909460009450879350918291908401908083835b60208310610f1d5780518252601f199092019160209182019101610efe565b6001836020036101000a03801982511681845116808217855250505050505090500191505090815260200160405180910390206005015401811515610f5e57fe5b056000826040518082805190602001908083835b60208310610f915780518252601f199092019160209182019101610f72565b51815160209384036101000a6000190180199092169116179052920194855250604051938490030190922060060192909255505050565b6002545b90565b600080826040518082805190602001908083835b602083106110025780518252601f199092019160209182019101610fe3565b6001836020036101000a0380198251168184511680821785525050505050509050019150509081526020016040518091039020600001805460018160011615610100020316600290049050600014159050919050565b6000806000836040518082805190602001908083835b6020831061108d5780518252601f19909201916020918201910161106e565b51815160209384036101000a60001901801990921691161790529201948552506040519384900381018420600401548751909460009450889350918291908401908083835b602083106110f15780518252601f1990920191602091820191016110d2565b51815160209384036101000a60001901801990921691161790529201948552506040519384900301909220600501549296929550919350505050565b6060611137611dfe565b6000846040518082805190602001908083835b602083106111695780518252601f19909201916020918201910161114a565b518151602093840361010090810a600019908101801990941693909216929092179092529290940196875260408051978890038201882080546002600182161586029097011695909504601f81018390049092028801610120908101909152918701818152939550869450859250908401828280156112295780601f106111fe57610100808354040283529160200191611229565b820191906000526020600020905b81548152906001019060200180831161120c57829003601f168201915b50505050508152602001600182018054600181600116156101000203166002900480601f0160208091040260200160405190810160405280929190818152602001828054600181600116156101000203166002900480156112cb5780601f106112a0576101008083540402835291602001916112cb565b820191906000526020600020905b8154815290600101906020018083116112ae57829003601f168201915b5050509183525050600282810180546040805160206001841615610100026000190190931694909404601f8101839004830285018301909152808452938101939083018282801561135d5780601f106113325761010080835404028352916020019161135d565b820191906000526020600020905b81548152906001019060200180831161134057829003601f168201915b505050918352505060038201805460408051602060026001851615610100026000190190941693909304601f81018490048402820184019092528181529382019392918301828280156113f15780601f106113c6576101008083540402835291602001916113f1565b820191906000526020600020905b8154815290600101906020018083116113d457829003601f168201915b5050505050815260200160048201548152602001600582015481526020016006820154815260200160078201548152505090506000846040518082805190602001908083835b602083106114565780518252601f199092019160209182019101611437565b6001836020036101000a038019825116818451168082178552505050505050905001915050908152602001604051809103902060010160405160200180828054600181600116156101000203166002900480156114ea5780601f106114c85761010080835404028352918201916114ea565b820191906000526020600020905b8154815290600101906020018083116114d6575b505091505060405160208183030381529060405280519060200120836040516020018082805190602001908083835b602083106115385780518252601f199092019160209182019101611519565b6001836020036101000a0380198251168184511680821785525050505050509050019150506040516020818303038152906040528051906020012014156115a15750506040805180820190915260078152600160c81b66737563636573730260208201526115c2565b50506040805180820190915260048152600160e21b6319985a5b0260208201525b92915050565b6060600180548060200260200160405190810160405280929190818152602001828054801561161657602002820191906000526020600020905b815481526020019060010190808311611602575b5050505050905090565b816000846040518082805190602001908083835b602083106116535780518252601f199092019160209182019101611634565b51815160209384036101000a6000190180199092169116179052920194855250604051938490038101842060040194909455505084518392600092879290918291908401908083835b602083106116bb5780518252601f19909201916020918201910161169c565b51815160209384036101000a60001901801990921691161790529201948552506040519384900301909220600501929092555050505050565b600180548290811061170257fe5b600091825260209091200154905081565b6020850151600160005b600154811015611755578260018281548110151561173757fe5b9060005260206000200154141561174d57600091505b60010161171d565b50600181151514156118c35760018054808201825560009182527fb10e2d527612073b26eecdfd717e6a320cf44b4afac2b0732d9fcbe2b7fa0cf6018390556040805161010081018252888152602081810189905281830188905260608201879052621e8480608083015260a0820184905260c082018490524260e083015291518a519193928b9282918401908083835b602083106118055780518252601f1990920191602091820191016117e6565b51815160209384036101000a600019018019909216911617905292019485525060405193849003810190932084518051919461184694508593500190611e43565b50602082810151805161185f9260018501920190611e43565b506040820151805161187b916002840191602090910190611e43565b5060608201518051611897916003840191602090910190611e43565b506080820151600482015560a0820151600582015560c0820151600682015560e0909101516007909101555b50505050505050565b600080600080846040518082805190602001908083835b602083106119025780518252601f1990920191602091820191016118e3565b51815160209384036101000a60001901801990921691161790529201948552506040519384900381018420600401548851909550600094859450899350918291908401908083835b602083106119695780518252601f19909201916020918201910161194a565b51815160209384036101000a6000190180199092169116179052920194855250604051938490030190922060050154939793965092945050505050565b6000826040518082805190602001908083835b602083106119d85780518252601f1990920191602091820191016119b9565b6001836020036101000a03801982511681845116808217855250505050505090500191505090815260200160405180910390206001016040516020018082805460018160011615610100020316600290048015611a6c5780601f10611a4a576101008083540402835291820191611a6c565b820191906000526020600020905b815481529060010190602001808311611a58575b505091505060405160208183030381529060405280519060200120816040516020018082805190602001908083835b60208310611aba5780518252601f199092019160209182019101611a9b565b6001836020036101000a038019825116818451168082178552505050505050905001915050604051602081830303815290604052805190602001201415611b05576001600255611b0a565b600280555b5050565b806000836040518082805190602001908083835b60208310611b415780518252601f199092019160209182019101611b22565b51815160209384036101000a600019018019909216911617905292019485525060405193849003019092206005019290925550505050565b805160208183018101805160008252928201938201939093209190925280546040805160026001841615610100026000190190931692909204601f8101859004850283018501909152808252919290918391830182828015611c1c5780601f10611bf157610100808354040283529160200191611c1c565b820191906000526020600020905b815481529060010190602001808311611bff57829003601f168201915b505050505090806001018054600181600116156101000203166002900480601f016020809104026020016040519081016040528092919081815260200182805460018160011615610100020316600290048015611cba5780601f10611c8f57610100808354040283529160200191611cba565b820191906000526020600020905b815481529060010190602001808311611c9d57829003601f168201915b50505060028085018054604080516020601f6000196101006001871615020190941695909504928301859004850281018501909152818152959695945090925090830182828015611d4c5780601f10611d2157610100808354040283529160200191611d4c565b820191906000526020600020905b815481529060010190602001808311611d2f57829003601f168201915b5050505060038301805460408051602060026001851615610100026000190190941693909304601f8101849004840282018401909252818152949594935090830182828015611ddc5780601f10611db157610100808354040283529160200191611ddc565b820191906000526020600020905b815481529060010190602001808311611dbf57829003601f168201915b5050505050908060040154908060050154908060060154908060070154905088565b60405180610100016040528060608152602001606081526020016060815260200160608152602001600081526020016000815260200160008152602001600081525090565b828054600181600116156101000203166002900490600052602060002090601f016020900481019282601f10611e8457805160ff1916838001178555611eb1565b82800160010185558215611eb1579182015b82811115611eb1578251825591602001919060010190611e96565b50611ebd929150611ec1565b5090565b610fcc91905b80821115611ebd5760008155600101611ec756fea165627a7a72305820b9259d715e57f04e5e8c9b9e43f76f9abb27afe12da72457ff351ad06891c71f0029",
  "source": "// SPDX-License-Identifier: MIT\r\npragma solidity >=0.4.22 <0.9.0;\r\n\r\ncontract UserManagement {\r\n    \r\n    mapping(string => userinformation) public person;\r\n    \r\n    struct userinformation{\r\n        string user_name;       //\r\n        string user_password;   //\r\n        string user_grade;      //\r\n        string user_major;      //\r\n        int user_cash;         //\r\n        int user_stockvalue;   //\r\n        int user_RateOfReturn; //\r\n        uint user_calltime;\r\n    }\r\n    \r\n    // \r\n    bytes32[] public all_Useraccount;\r\n    \r\n    //\r\n    function setUser(string memory _useraccount, string memory user_name,\r\n    string memory user_password, string memory user_grade, string memory user_major) public{\r\n        bytes32 bytes_useraccount;\r\n        assembly {\r\n            bytes_useraccount := mload(add(_useraccount, 32))\r\n        }\r\n        bool user_state = true;\r\n        for(uint i = 0 ; i < all_Useraccount.length ; i++) {\r\n            if(all_Useraccount[i] == bytes_useraccount){\r\n                user_state = false;\r\n            }\r\n        }\r\n        if(user_state == true){\r\n            all_Useraccount.push(bytes_useraccount);  \r\n            person[_useraccount] = (userinformation(user_name, user_password, user_grade,\r\n            user_major, 2000000, 0, 0, block.timestamp));\r\n        }\r\n    }\r\n    \r\n    //\r\n    function get_User(string memory _useraccount, string memory user_password) public view returns(string memory){\r\n        \r\n        userinformation memory ui = person[_useraccount];\r\n        if(keccak256(abi.encodePacked(user_password)) == keccak256(abi.encodePacked(person[_useraccount].user_password))){\r\n            //\r\n            return \"success\";\r\n        }\r\n        else{\r\n            //\r\n            return \"fail\";\r\n        }\r\n        \r\n        // return (ui.user_name, _useraccount, ui.user_password, ui.user_grade, ui.user_major, ui.user_cash, ui.user_stockvalue, ui.user_RateOfReturn, ui.user_calltime);\r\n    }\r\n\r\n    function getMoney(string memory _useraccount) public view returns(int, int){\r\n        int cash = person[_useraccount].user_cash;\r\n        int value = person[_useraccount].user_stockvalue;\r\n        return (cash, value);\r\n    }\r\n    \r\n    //\r\n    function get_allUser() public view returns(bytes32[] memory){\r\n        //bytes32string\r\n        // string memory convertuserID;\r\n        // uint8 i = 0;\r\n        // while(i < 32 && all_Useraccount[i] != 0) {\r\n        //     i++;\r\n        // }\r\n        // bytes memory bytesArray = new bytes(i);\r\n        // for (i = 0; i < 32 && all_Useraccount[i] != 0; i++) {\r\n        //     bytesArray[i] = all_Useraccount[i];\r\n        // }\r\n        // convertuserID = string(bytesArray);\r\n        return all_Useraccount;\r\n    }\r\n    \r\n    //Getstock\r\n    function user_IsExist(string memory _useraccount) public returns(bool) {\r\n        return bytes(person[_useraccount].user_name).length != 0;\r\n    }\r\n    \r\n    //Getstock\r\n    function get_UserMoney(string memory _useraccount) public returns(int, int){\r\n        return (person[_useraccount].user_cash, person[_useraccount].user_stockvalue);\r\n    }\r\n    \r\n    //Getstock\r\n    function get_UserStockValue(string memory _useraccount) public returns(int){\r\n        return (person[_useraccount].user_stockvalue);\r\n    }\r\n    \r\n    //\r\n    function update_UserMoney(string memory _useraccount, int cash, int stockvalue) public{\r\n        person[_useraccount].user_cash = cash;\r\n        person[_useraccount].user_stockvalue = stockvalue;\r\n    }\r\n    \r\n    //\r\n    function update_UserStockValue(string memory _useraccount, int stockvalue) public{\r\n        person[_useraccount].user_stockvalue = stockvalue;\r\n    }\r\n    \r\n    //\r\n    function update_UserRateOfReturn(string memory _useraccount) public{\r\n        person[_useraccount].user_RateOfReturn = (person[_useraccount].user_stockvalue + person[_useraccount].user_cash)/2000000;\r\n    }\r\n\r\n    int a=0;//\r\n    function input_User(string memory account, string memory password) public{\r\n        if(keccak256(abi.encodePacked(password)) == keccak256(abi.encodePacked(person[account].user_password))){\r\n            //\r\n            a=1;\r\n        }\r\n        else{\r\n            //\r\n            a=2;\r\n        }\r\n    }\r\n    //\r\n    function geta() public view returns(int){\r\n        return a;\r\n    }\r\n}",
  "sourcePath": "C:\\Users\\yang\\my-Block-Stock\\contracts\\UserManagement.sol",
  "compiler": {
    "name": "solc",
    "version": "0.5.5+commit.47a71e8f.Emscripten.clang"
  },
  "schemaVersion": "3.3.3",
  "updatedAt": "2021-09-19T07:16:46.753Z",
  "networkType": "ethereum",
  "devdoc": {
    "methods": {}
  },
  "userdoc": {
    "methods": {}
  }
}