{
  "contractName": "UserManagement",
  "abi": [
    {
      "constant": true,
      "inputs": [
        {
          "name": "",
          "type": "uint256"
        }
      ],
      "name": "all_Useraccount",
      "outputs": [
        {
          "name": "",
          "type": "bytes32"
        }
      ],
      "payable": false,
      "stateMutability": "view",
      "type": "function"
    },
    {
      "constant": true,
      "inputs": [
        {
          "name": "",
          "type": "string"
        }
      ],
      "name": "person",
      "outputs": [
        {
          "name": "user_name",
          "type": "string"
        },
        {
          "name": "user_password",
          "type": "string"
        },
        {
          "name": "user_grade",
          "type": "string"
        },
        {
          "name": "user_major",
          "type": "string"
        },
        {
          "name": "user_cash",
          "type": "int256"
        },
        {
          "name": "user_stockvalue",
          "type": "int256"
        },
        {
          "name": "user_RateOfReturn",
          "type": "int256"
        },
        {
          "name": "user_calltime",
          "type": "uint256"
        }
      ],
      "payable": false,
      "stateMutability": "view",
      "type": "function"
    },
    {
      "constant": false,
      "inputs": [
        {
          "name": "_useraccount",
          "type": "string"
        },
        {
          "name": "user_name",
          "type": "string"
        },
        {
          "name": "user_password",
          "type": "string"
        },
        {
          "name": "user_grade",
          "type": "string"
        },
        {
          "name": "user_major",
          "type": "string"
        }
      ],
      "name": "setUser",
      "outputs": [],
      "payable": false,
      "stateMutability": "nonpayable",
      "type": "function"
    },
    {
      "constant": true,
      "inputs": [
        {
          "name": "_useraccount",
          "type": "string"
        }
      ],
      "name": "get_User",
      "outputs": [
        {
          "name": "",
          "type": "string"
        },
        {
          "name": "",
          "type": "string"
        },
        {
          "name": "",
          "type": "string"
        },
        {
          "name": "",
          "type": "string"
        },
        {
          "name": "",
          "type": "string"
        },
        {
          "name": "",
          "type": "int256"
        },
        {
          "name": "",
          "type": "int256"
        },
        {
          "name": "",
          "type": "int256"
        },
        {
          "name": "",
          "type": "uint256"
        }
      ],
      "payable": false,
      "stateMutability": "view",
      "type": "function"
    },
    {
      "constant": true,
      "inputs": [],
      "name": "get_allUser",
      "outputs": [
        {
          "name": "",
          "type": "bytes32[]"
        }
      ],
      "payable": false,
      "stateMutability": "view",
      "type": "function"
    },
    {
      "constant": false,
      "inputs": [
        {
          "name": "_useraccount",
          "type": "string"
        }
      ],
      "name": "user_IsExist",
      "outputs": [
        {
          "name": "",
          "type": "bool"
        }
      ],
      "payable": false,
      "stateMutability": "nonpayable",
      "type": "function"
    },
    {
      "constant": false,
      "inputs": [
        {
          "name": "_useraccount",
          "type": "string"
        }
      ],
      "name": "get_UserMoney",
      "outputs": [
        {
          "name": "",
          "type": "int256"
        },
        {
          "name": "",
          "type": "int256"
        }
      ],
      "payable": false,
      "stateMutability": "nonpayable",
      "type": "function"
    },
    {
      "constant": false,
      "inputs": [
        {
          "name": "_useraccount",
          "type": "string"
        }
      ],
      "name": "get_UserStockValue",
      "outputs": [
        {
          "name": "",
          "type": "int256"
        }
      ],
      "payable": false,
      "stateMutability": "nonpayable",
      "type": "function"
    },
    {
      "constant": false,
      "inputs": [
        {
          "name": "_useraccount",
          "type": "string"
        },
        {
          "name": "cash",
          "type": "int256"
        },
        {
          "name": "stockvalue",
          "type": "int256"
        }
      ],
      "name": "update_UserMoney",
      "outputs": [],
      "payable": false,
      "stateMutability": "nonpayable",
      "type": "function"
    },
    {
      "constant": false,
      "inputs": [
        {
          "name": "_useraccount",
          "type": "string"
        },
        {
          "name": "stockvalue",
          "type": "int256"
        }
      ],
      "name": "update_UserStockValue",
      "outputs": [],
      "payable": false,
      "stateMutability": "nonpayable",
      "type": "function"
    },
    {
      "constant": false,
      "inputs": [
        {
          "name": "_useraccount",
          "type": "string"
        }
      ],
      "name": "update_UserRateOfReturn",
      "outputs": [],
      "payable": false,
      "stateMutability": "nonpayable",
      "type": "function"
    },
    {
      "constant": false,
      "inputs": [
        {
          "name": "account",
          "type": "string"
        },
        {
          "name": "password",
          "type": "string"
        }
      ],
      "name": "input_User",
      "outputs": [],
      "payable": false,
      "stateMutability": "nonpayable",
      "type": "function"
    },
    {
      "constant": true,
      "inputs": [],
      "name": "geta",
      "outputs": [
        {
          "name": "",
          "type": "int256"
        }
      ],
      "payable": false,
      "stateMutability": "view",
      "type": "function"
    }
  ],
  "bytecode": "0x6080604052600060025534801561001557600080fd5b50611d60806100256000396000f3fe608060405234801561001057600080fd5b50600436106100cf5760003560e01c8063a57b78a41161008c578063ded0d76a11610066578063ded0d76a1461079e578063f3b1fbef14610a56578063f640c4d114610b7f578063fc16b23514610c25576100cf565b8063a57b78a414610680578063b3baa5a6146106d8578063ca96d8b014610781576100cf565b80630454e7bc146100d45780630a4e61f91461018a5780636bf6b0381461023057806370e19a361461023857806381879cf5146102f05780639e75566a146103ad575b600080fd5b610178600480360360208110156100ea57600080fd5b810190602081018135600160201b81111561010457600080fd5b82018360208201111561011657600080fd5b803590602001918460018302840111600160201b8311171561013757600080fd5b91908080601f016020809104026020016040519081016040528093929190818152602001838380828437600092019190915250929550610e8f945050505050565b60408051918252519081900360200190f35b61022e600480360360208110156101a057600080fd5b810190602081018135600160201b8111156101ba57600080fd5b8201836020820111156101cc57600080fd5b803590602001918460018302840111600160201b831117156101ed57600080fd5b91908080601f016020809104026020016040519081016040528093929190818152602001838380828437600092019190915250929550610ef9945050505050565b005b61017861103e565b6102dc6004803603602081101561024e57600080fd5b810190602081018135600160201b81111561026857600080fd5b82018360208201111561027a57600080fd5b803590602001918460018302840111600160201b8311171561029b57600080fd5b91908080601f016020809104026020016040519081016040528093929190818152602001838380828437600092019190915250929550611045945050505050565b604080519115158252519081900360200190f35b6103946004803603602081101561030657600080fd5b810190602081018135600160201b81111561032057600080fd5b82018360208201111561033257600080fd5b803590602001918460018302840111600160201b8311171561035357600080fd5b91908080601f0160208091040260200160405190810160405280939291908181526020018383808284376000920191909152509295506110ce945050505050565b6040805192835260208301919091528051918290030190f35b610451600480360360208110156103c357600080fd5b810190602081018135600160201b8111156103dd57600080fd5b8201836020820111156103ef57600080fd5b803590602001918460018302840111600160201b8311171561041057600080fd5b91908080601f0160208091040260200160405190810160405280939291908181526020018383808284376000920191909152509295506111a3945050505050565b6040518080602001806020018060200180602001806020018a815260200189815260200188815260200187815260200186810386528f818151815260200191508051906020019080838360005b838110156104b657818101518382015260200161049e565b50505050905090810190601f1680156104e35780820380516001836020036101000a031916815260200191505b5086810385528e818151815260200191508051906020019080838360005b83811015610519578181015183820152602001610501565b50505050905090810190601f1680156105465780820380516001836020036101000a031916815260200191505b5086810384528d5181528d516020918201918f019080838360005b83811015610579578181015183820152602001610561565b50505050905090810190601f1680156105a65780820380516001836020036101000a031916815260200191505b5086810383528c5181528c516020918201918e019080838360005b838110156105d95781810151838201526020016105c1565b50505050905090810190601f1680156106065780820380516001836020036101000a031916815260200191505b5086810382528b5181528b516020918201918d019080838360005b83811015610639578181015183820152602001610621565b50505050905090810190601f1680156106665780820380516001836020036101000a031916815260200191505b509e50505050505050505050505050505060405180910390f35b6106886114fb565b60408051602080825283518183015283519192839290830191858101910280838360005b838110156106c45781810151838201526020016106ac565b505050509050019250505060405180910390f35b61022e600480360360608110156106ee57600080fd5b810190602081018135600160201b81111561070857600080fd5b82018360208201111561071a57600080fd5b803590602001918460018302840111600160201b8311171561073b57600080fd5b91908080601f0160208091040260200160405190810160405280939291908181526020018383808284376000920191909152509295505082359350505060200135611553565b6101786004803603602081101561079757600080fd5b5035611627565b61022e600480360360a08110156107b457600080fd5b810190602081018135600160201b8111156107ce57600080fd5b8201836020820111156107e057600080fd5b803590602001918460018302840111600160201b8311171561080157600080fd5b91908080601f0160208091040260200160405190810160405280939291908181526020018383808284376000920191909152509295949360208101935035915050600160201b81111561085357600080fd5b82018360208201111561086557600080fd5b803590602001918460018302840111600160201b8311171561088657600080fd5b91908080601f0160208091040260200160405190810160405280939291908181526020018383808284376000920191909152509295949360208101935035915050600160201b8111156108d857600080fd5b8201836020820111156108ea57600080fd5b803590602001918460018302840111600160201b8311171561090b57600080fd5b91908080601f0160208091040260200160405190810160405280939291908181526020018383808284376000920191909152509295949360208101935035915050600160201b81111561095d57600080fd5b82018360208201111561096f57600080fd5b803590602001918460018302840111600160201b8311171561099057600080fd5b91908080601f0160208091040260200160405190810160405280939291908181526020018383808284376000920191909152509295949360208101935035915050600160201b8111156109e257600080fd5b8201836020820111156109f457600080fd5b803590602001918460018302840111600160201b83111715610a1557600080fd5b91908080601f016020809104026020016040519081016040528093929190818152602001838380828437600092019190915250929550611646945050505050565b61022e60048036036040811015610a6c57600080fd5b810190602081018135600160201b811115610a8657600080fd5b820183602082011115610a9857600080fd5b803590602001918460018302840111600160201b83111715610ab957600080fd5b91908080601f0160208091040260200160405190810160405280939291908181526020018383808284376000920191909152509295949360208101935035915050600160201b811115610b0b57600080fd5b820183602082011115610b1d57600080fd5b803590602001918460018302840111600160201b83111715610b3e57600080fd5b91908080601f0160208091040260200160405190810160405280939291908181526020018383808284376000920191909152509295506117ff945050505050565b61022e60048036036040811015610b9557600080fd5b810190602081018135600160201b811115610baf57600080fd5b820183602082011115610bc157600080fd5b803590602001918460018302840111600160201b83111715610be257600080fd5b91908080601f0160208091040260200160405190810160405280939291908181526020018383808284376000920191909152509295505091359250611967915050565b610cc960048036036020811015610c3b57600080fd5b810190602081018135600160201b811115610c5557600080fd5b820183602082011115610c6757600080fd5b803590602001918460018302840111600160201b83111715610c8857600080fd5b91908080601f0160208091040260200160405190810160405280939291908181526020018383808284376000920191909152509295506119d2945050505050565b604051808060200180602001806020018060200189815260200188815260200187815260200186815260200185810385528d818151815260200191508051906020019080838360005b83811015610d2a578181015183820152602001610d12565b50505050905090810190601f168015610d575780820380516001836020036101000a031916815260200191505b5085810384528c5181528c516020918201918e019080838360005b83811015610d8a578181015183820152602001610d72565b50505050905090810190601f168015610db75780820380516001836020036101000a031916815260200191505b5085810383528b5181528b516020918201918d019080838360005b83811015610dea578181015183820152602001610dd2565b50505050905090810190601f168015610e175780820380516001836020036101000a031916815260200191505b5085810382528a5181528a516020918201918c019080838360005b83811015610e4a578181015183820152602001610e32565b50505050905090810190601f168015610e775780820380516001836020036101000a031916815260200191505b509c5050505050505050505050505060405180910390f35b600080826040518082805190602001908083835b60208310610ec25780518252601f199092019160209182019101610ea3565b51815160209384036101000a6000190180199092169116179052920194855250604051938490030190922060050154949350505050565b621e84806000826040518082805190602001908083835b60208310610f2f5780518252601f199092019160209182019101610f10565b51815160209384036101000a60001901801990921691161790529201948552506040519384900381018420600401548651909460009450879350918291908401908083835b60208310610f935780518252601f199092019160209182019101610f74565b6001836020036101000a03801982511681845116808217855250505050505090500191505090815260200160405180910390206005015401811515610fd457fe5b056000826040518082805190602001908083835b602083106110075780518252601f199092019160209182019101610fe8565b51815160209384036101000a6000190180199092169116179052920194855250604051938490030190922060060192909255505050565b6002545b90565b600080826040518082805190602001908083835b602083106110785780518252601f199092019160209182019101611059565b6001836020036101000a0380198251168184511680821785525050505050509050019150509081526020016040518091039020600001805460018160011615610100020316600290049050600014159050919050565b6000806000836040518082805190602001908083835b602083106111035780518252601f1990920191602091820191016110e4565b51815160209384036101000a60001901801990921691161790529201948552506040519384900381018420600401548751909460009450889350918291908401908083835b602083106111675780518252601f199092019160209182019101611148565b51815160209384036101000a60001901801990921691161790529201948552506040519384900301909220600501549296929550919350505050565b60608060608060606000806000806111b9611c57565b60008b6040518082805190602001908083835b602083106111eb5780518252601f1990920191602091820191016111cc565b518151602093840361010090810a600019908101801990941693909216929092179092529290940196875260408051978890038201882080546002600182161586029097011695909504601f81018390049092028801610120908101909152918701818152939550869450859250908401828280156112ab5780601f10611280576101008083540402835291602001916112ab565b820191906000526020600020905b81548152906001019060200180831161128e57829003601f168201915b50505050508152602001600182018054600181600116156101000203166002900480601f01602080910402602001604051908101604052809291908181526020018280546001816001161561010002031660029004801561134d5780601f106113225761010080835404028352916020019161134d565b820191906000526020600020905b81548152906001019060200180831161133057829003601f168201915b5050509183525050600282810180546040805160206001841615610100026000190190931694909404601f810183900483028501830190915280845293810193908301828280156113df5780601f106113b4576101008083540402835291602001916113df565b820191906000526020600020905b8154815290600101906020018083116113c257829003601f168201915b505050918352505060038201805460408051602060026001851615610100026000190190941693909304601f81018490048402820184019092528181529382019392918301828280156114735780601f1061144857610100808354040283529160200191611473565b820191906000526020600020905b81548152906001019060200180831161145657829003601f168201915b50505050508152602001600482015481526020016005820154815260200160068201548152602001600782015481525050905080600001518b82602001518360400151846060015185608001518660a001518760c001518860e00151889850869650859550849450995099509950995099509950995099509950509193959799909294969850565b6060600180548060200260200160405190810160405280929190818152602001828054801561154957602002820191906000526020600020905b815481526020019060010190808311611535575b5050505050905090565b816000846040518082805190602001908083835b602083106115865780518252601f199092019160209182019101611567565b51815160209384036101000a6000190180199092169116179052920194855250604051938490038101842060040194909455505084518392600092879290918291908401908083835b602083106115ee5780518252601f1990920191602091820191016115cf565b51815160209384036101000a60001901801990921691161790529201948552506040519384900301909220600501929092555050505050565b600180548290811061163557fe5b600091825260209091200154905081565b6020850151600160005b600154811015611688578260018281548110151561166a57fe5b9060005260206000200154141561168057600091505b600101611650565b50600181151514156117f65760018054808201825560009182527fb10e2d527612073b26eecdfd717e6a320cf44b4afac2b0732d9fcbe2b7fa0cf6018390556040805161010081018252888152602081810189905281830188905260608201879052621e8480608083015260a0820184905260c082018490524260e083015291518a519193928b9282918401908083835b602083106117385780518252601f199092019160209182019101611719565b51815160209384036101000a600019018019909216911617905292019485525060405193849003810190932084518051919461177994508593500190611c9c565b5060208281015180516117929260018501920190611c9c565b50604082015180516117ae916002840191602090910190611c9c565b50606082015180516117ca916003840191602090910190611c9c565b506080820151600482015560a0820151600582015560c0820151600682015560e0909101516007909101555b50505050505050565b6000826040518082805190602001908083835b602083106118315780518252601f199092019160209182019101611812565b6001836020036101000a038019825116818451168082178552505050505050905001915050908152602001604051809103902060010160405160200180828054600181600116156101000203166002900480156118c55780601f106118a35761010080835404028352918201916118c5565b820191906000526020600020905b8154815290600101906020018083116118b1575b505091505060405160208183030381529060405280519060200120816040516020018082805190602001908083835b602083106119135780518252601f1990920191602091820191016118f4565b6001836020036101000a03801982511681845116808217855250505050505090500191505060405160208183030381529060405280519060200120141561195e576001600255611963565b600280555b5050565b806000836040518082805190602001908083835b6020831061199a5780518252601f19909201916020918201910161197b565b51815160209384036101000a600019018019909216911617905292019485525060405193849003019092206005019290925550505050565b805160208183018101805160008252928201938201939093209190925280546040805160026001841615610100026000190190931692909204601f8101859004850283018501909152808252919290918391830182828015611a755780601f10611a4a57610100808354040283529160200191611a75565b820191906000526020600020905b815481529060010190602001808311611a5857829003601f168201915b505050505090806001018054600181600116156101000203166002900480601f016020809104026020016040519081016040528092919081815260200182805460018160011615610100020316600290048015611b135780601f10611ae857610100808354040283529160200191611b13565b820191906000526020600020905b815481529060010190602001808311611af657829003601f168201915b50505060028085018054604080516020601f6000196101006001871615020190941695909504928301859004850281018501909152818152959695945090925090830182828015611ba55780601f10611b7a57610100808354040283529160200191611ba5565b820191906000526020600020905b815481529060010190602001808311611b8857829003601f168201915b5050505060038301805460408051602060026001851615610100026000190190941693909304601f8101849004840282018401909252818152949594935090830182828015611c355780601f10611c0a57610100808354040283529160200191611c35565b820191906000526020600020905b815481529060010190602001808311611c1857829003601f168201915b5050505050908060040154908060050154908060060154908060070154905088565b60405180610100016040528060608152602001606081526020016060815260200160608152602001600081526020016000815260200160008152602001600081525090565b828054600181600116156101000203166002900490600052602060002090601f016020900481019282601f10611cdd57805160ff1916838001178555611d0a565b82800160010185558215611d0a579182015b82811115611d0a578251825591602001919060010190611cef565b50611d16929150611d1a565b5090565b61104291905b80821115611d165760008155600101611d2056fea165627a7a72305820fb26712094d88a5ea1aee4e747cca600a4abdb914169721ecb9cac916493a9800029",
  "source": "// SPDX-License-Identifier: MIT\r\npragma solidity >=0.4.22 <0.9.0;\r\n\r\ncontract UserManagement {\r\n    \r\n    mapping(string => userinformation) public person;\r\n    \r\n    struct userinformation{\r\n        string user_name;       //\r\n        string user_password;   //\r\n        string user_grade;      //\r\n        string user_major;      //\r\n        int user_cash;         //\r\n        int user_stockvalue;   //\r\n        int user_RateOfReturn; //\r\n        uint user_calltime;\r\n    }\r\n    \r\n    // \r\n    bytes32[] public all_Useraccount;\r\n    \r\n    //\r\n    function setUser(string memory _useraccount, string memory user_name, string memory user_password, string memory user_grade, string memory user_major) public{\r\n       \r\n        //stringbytes\r\n        bytes32 bytes_useraccount;\r\n        assembly {\r\n            bytes_useraccount := mload(add(_useraccount, 32))\r\n        }\r\n        \r\n        //\r\n        bool user_state = true;\r\n        for(uint i = 0 ; i < all_Useraccount.length ; i++) {\r\n            if(all_Useraccount[i] == bytes_useraccount){\r\n                user_state = false;\r\n            }\r\n        }\r\n        if(user_state == true){\r\n            all_Useraccount.push(bytes_useraccount);    //bytes\r\n            //\r\n            person[_useraccount] = (userinformation(user_name, user_password, user_grade, user_major, 2000000, 0, 0, block.timestamp));\r\n        }\r\n    }\r\n    \r\n    //\r\n    function get_User(string memory _useraccount) public view returns(string memory, string memory, string memory, string memory, string memory, int, int, int, uint){\r\n        userinformation memory ui = person[_useraccount];\r\n        return (ui.user_name, _useraccount, ui.user_password, ui.user_grade, ui.user_major, ui.user_cash, ui.user_stockvalue, ui.user_RateOfReturn, ui.user_calltime);\r\n    }\r\n    \r\n    //\r\n    function get_allUser() public view returns(bytes32[] memory){\r\n        //bytes32string\r\n        // string memory convertuserID;\r\n        // uint8 i = 0;\r\n        // while(i < 32 && all_Useraccount[i] != 0) {\r\n        //     i++;\r\n        // }\r\n        // bytes memory bytesArray = new bytes(i);\r\n        // for (i = 0; i < 32 && all_Useraccount[i] != 0; i++) {\r\n        //     bytesArray[i] = all_Useraccount[i];\r\n        // }\r\n        // convertuserID = string(bytesArray);\r\n        return all_Useraccount;\r\n    }\r\n    \r\n    //Getstock\r\n    function user_IsExist(string memory _useraccount) public returns(bool) {\r\n        return bytes(person[_useraccount].user_name).length != 0;\r\n    }\r\n    \r\n    //Getstock\r\n    function get_UserMoney(string memory _useraccount) public returns(int, int){\r\n        return (person[_useraccount].user_cash, person[_useraccount].user_stockvalue);\r\n    }\r\n    \r\n    //Getstock\r\n    function get_UserStockValue(string memory _useraccount) public returns(int){\r\n        return (person[_useraccount].user_stockvalue);\r\n    }\r\n    \r\n    //\r\n    function update_UserMoney(string memory _useraccount, int cash, int stockvalue) public{\r\n        person[_useraccount].user_cash = cash;\r\n        person[_useraccount].user_stockvalue = stockvalue;\r\n    }\r\n    \r\n    //\r\n    function update_UserStockValue(string memory _useraccount, int stockvalue) public{\r\n        person[_useraccount].user_stockvalue = stockvalue;\r\n    }\r\n    \r\n    //\r\n    function update_UserRateOfReturn(string memory _useraccount) public{\r\n        person[_useraccount].user_RateOfReturn = (person[_useraccount].user_stockvalue + person[_useraccount].user_cash)/2000000;\r\n    }\r\n\r\n    int a=0;//\r\n    function input_User(string memory account, string memory password) public{\r\n        if(keccak256(abi.encodePacked(password)) == keccak256(abi.encodePacked(person[account].user_password))){\r\n            //\r\n            a=1;\r\n        }\r\n        else{\r\n            //\r\n            a=2;\r\n        }\r\n    }\r\n    //\r\n    function geta() public view returns(int){\r\n        return a;\r\n    }\r\n}",
  "sourcePath": "C:\\Users\\yang\\my-Block-Stock\\contracts\\UserManagement.sol",
  "compiler": {
    "name": "solc",
    "version": "0.5.5+commit.47a71e8f.Emscripten.clang"
  },
  "schemaVersion": "3.3.3",
  "updatedAt": "2021-03-19T04:30:51.795Z",
  "networkType": "ethereum",
  "devdoc": {
    "methods": {}
  },
  "userdoc": {
    "methods": {}
  }
}